:060000000C945F000C945B
:1000060000000C9400000C9400000C9400000C946A
:1000160000000C9400000C9400000C9400000C945A
:1000260000000C9400000C9400000C9400000C944A
:10003600FC000C9400000C9400000C9400000C943E
:1000460000000C9400000C9400000C9499000C9491
:1000560000000C94C9000C9400000C9400000C9451
:1000660000000C9400000C9400000C9400000C940A
:1000760000000C9400001027E80364000A00010049
:1000860000100001100001000D0A537756657273C7
:10009600696F6E3A25642E256447726F7570463116
:1000A6000D0A000001002D4E414E00494E4600004B
:1000B60001001002AA000000F894EE27EFBBF1E061
:1000C600F5BFE5BFF8E1A895A4B7A77FA4BFF09355
:1000D6006000E09360008DE0A2E0BB27ED938A9577
:1000E600E9F780E094E0A0E0B1E0ED930197E9F74D
:1000F600E6EBF0E085919591009761F0A591B591B9
:1001060005901590BF01F00105900D920197E1F75A
:10011600FB01F0CFE0E0EEBBEABDEBBDEFEFEDBFDC
:10012600E4E0EEBFC0E0D2E00C94020187D21A935D
:100136000A931091C0000091C600E12FEC7181F482
:10014600E32D3394F0E0E050FE4F0083E8E0E31542
:1001560009F433245394E8E0E51511F45524F09A94
:100166000991199123C01A935520F1F3E22D239496
:10017600F0E0E050FE4F1081E8E0E21509F4222499
:10018600F8945A947894E12F1991089557D26620DD
:1001960069F06A94E72D7394F0E0E85FFD4FE08123
:1001A600E093C600E8E0E71509F47724E991EFBF8C
:1001B600F991E9911895AA93E8E0E615E9F3F89420
:1001C600662021F4E091C000E07269F4E42D4394C6
:1001D600F0E0E85FFD4FA881A083E8E0E41509F4AC
:1001E6004424639403C0E881E093C6007894219682
:1001F60008955E9B02C05E9801C05E9A18954DD028
:1002060078945E9AA8955520C9F0ADDF1E2F1F334E
:1002160091F4EEE8F0E0FA93EA93E1E0F0E060E0D2
:1002260070E057D2E3E0F0E060E070E052D288E0A0
:10023600C9D12A9603C0A12FAF5FBDDF4D9921C05A
:10024600AEE1B0E04BD24D991CC04D9902C0A895C5
:10025600FCCFA0918900A83931F4F5D1E3E1E09310
:100266008900E0E10CC0A0918900A33119F4EBD11B
:10027600F0D105C0E8D1E8E9E0938900E0E8E09331
:10028600880000E0033038F45C9A87E08A95F1F73D
:100296005C980F5FF7CFB6CFFFCFE0E8E093610041
:1002A600E0E0E0936100E2B9E1B9E5B9E4B9E8B9A3
:1002B600E7B9E0E2EBB9E0E5EAB9E0E0E4BDE5BDC7
:1002C600E6BDE7BDE8BDE0938000EDE0E093810088
:1002D600BAD1E0E0E0938700E0938600BAD1E093DC
:1002E6008800E0E0E0938B00E0938A00E093B6009C
:1002F600E093B000E093B100E093B200E093B30066
:10030600E093B400E0936900EDBBE0936800E093EE
:100316006E00E2E0E0936F00E0E0E0937000E093AF
:10032600C000E8EDE093C100E6E0E093C200E0E043
:10033600E093C500E1E8E093C400E0E0E093C90083
:10034600E0E8E0BFE0E0E0937B00E0937F00A89563
:10035600E8E1E0936000E8E0E09360000895BA9376
:10036600AA93AA8128DFA881B981ED91FD913196E2
:10037600FE93EE9323960895BA93AA9326978BD16C
:1003860010E0AC85BD85E0E0F0E0ED93FC93EA89F2
:10039600FB893196EA8BFB8B3197E4912E2FE03067
:1003A60009F409C1E12FE03031F4253211F411E0EE
:1003B60001C054D1FFC0E130A1F4253211F44ED171
:1003C600F8C012E040E000E02D3211F401E0F2C086
:1003D6002B3211F44BE2EEC0203211F440E2EAC0B7
:1003E60002C0E23039F450E013E0203311F4006823
:1003F600E1C003C0E33009F0DDC0203310F02A333A
:1004060008F007C0AAE05A9F502DE22FE0535E0F76
:10041600D1C0E22FE33639F428D1E889F989A481DD
:10042600AA9329D1C6C0E33729F41FD12AD1EDD02A
:100436001E2F07C0E03749F418D123D1F2D01E2F62
:10044600086002600F7730E038C0E43611F0E93614
:1004560011F4046002C0E53731F4ECE7F0E0EE8316
:10046600FF8315E00CC0E83511F4086003C0E837D7
:1004760009F09FC0E6E8F0E0EE83FF8314E002FF98
:1004860015C0F3D0A889B9891496ED91FD91EA8734
:10049600FB87AB85AA2322F410D1EA87FB874DE2BE
:1004A600403011F01F5F01C00B7F07C0DED0A88966
:1004B600B989149606D1EA87FB8700FD10C0151787
:1004C60070F407FF08C002FF04C00B7F242F1150F1
:1004D60001C020E301C020E2C1D05150F0CF312F3E
:1004E60001FF16C0303099F003FF06C0EE81FF8190
:1004F6002591EE83FF8305C0AE81BF812D91AE832A
:10050600BF83ACD0503009F051503150EBCF48C0CA
:1005160020E3EE81FF81D9D0E887F987EE81FF815C
:100526003296EE83FF83E885F985AA85BB85AE17EB
:10053600BF0750F02F5FA885B985EA85FB85EA1BC2
:10054600FB0BEA87FB87EFCF2A3328F003FF02C0B5
:10055600295F01C0295D04FD19C0213320F4A88557
:10056600B985119709F409C0531710F000FF01C0AF
:1005760011C020E207FF0AC020E3006102FF06C0A7
:100586000B7F4A9378D0503009F0515067D05030E5
:1005960009F051503150A885B985129708F0B8CFA7
:1005A60000FF07C0503029F05150E0E2EA9363D0D3
:1005B600F9CF10E0ECCEAC85BD85ED91FD9172D002
:1005C60064960895FF92F82E26971A930A93DE01F1
:1005D60014966FD08D01E0E0EC83ED83EE83EF831C
:1005E600DE01189666D0ED91FD91FA93EA931A937F
:1005F6000A93E2EBF1E0FA93EA93DE011896BCDE89
:10060600198108812896FF900895BA93AA93A99113
:10061600B991EE27FF276D91662311F03196FBCF36
:100626000895BA93AA93AA27BB27E991F991059051
:10063600002011F01196FBCFFD010895EA93FA937D
:10064600EFB7EA930895E0E0E0938500E093840035
:100656000895ECE4E0938900E0E408952A93AD85DB
:10066600BE85EF85F88909950895E889F989349753
:10067600E88BF98B0895AD85BE85EF85F8890995D8
:100686000895A889B9891496ED91FD91EE83FF83AB
:10069600AE81BF8108955A934A933A932A931A9347
:1006A6000A9308955D814C813B812A8119810881D5
:1006B60008950024AF0DB01D0895F195E195F04021
:1006C6000895ED91FC91119708950590F491E02D10
:1006D60008957A936A93FA93EA930895109639F0F7
:1006E600A89588E893E10197F1F71197C9F708955E
:00000001FF
